{
  "_format": "hh-sol-artifact-1",
  "contractName": "Lottery",
  "sourceName": "contracts/Lottery.sol",
  "abi": [
    {
      "inputs": [],
      "stateMutability": "nonpayable",
      "type": "constructor"
    },
    {
      "anonymous": false,
      "inputs": [
        {
          "indexed": false,
          "internalType": "uint256",
          "name": "index",
          "type": "uint256"
        },
        {
          "indexed": false,
          "internalType": "uint256",
          "name": "prize",
          "type": "uint256"
        },
        {
          "indexed": false,
          "internalType": "address",
          "name": "winner",
          "type": "address"
        }
      ],
      "name": "WinnerPicked",
      "type": "event"
    },
    {
      "inputs": [],
      "name": "enter",
      "outputs": [],
      "stateMutability": "payable",
      "type": "function"
    },
    {
      "inputs": [],
      "name": "getPlayers",
      "outputs": [
        {
          "internalType": "address payable[]",
          "name": "",
          "type": "address[]"
        }
      ],
      "stateMutability": "view",
      "type": "function"
    },
    {
      "inputs": [],
      "name": "owner",
      "outputs": [
        {
          "internalType": "address",
          "name": "",
          "type": "address"
        }
      ],
      "stateMutability": "view",
      "type": "function"
    },
    {
      "inputs": [],
      "name": "pickWinner",
      "outputs": [],
      "stateMutability": "nonpayable",
      "type": "function"
    },
    {
      "inputs": [
        {
          "internalType": "uint256",
          "name": "",
          "type": "uint256"
        }
      ],
      "name": "players",
      "outputs": [
        {
          "internalType": "address payable",
          "name": "",
          "type": "address"
        }
      ],
      "stateMutability": "view",
      "type": "function"
    }
  ],
  "bytecode": "0x608060405234801561001057600080fd5b50336000806101000a81548173ffffffffffffffffffffffffffffffffffffffff021916908373ffffffffffffffffffffffffffffffffffffffff160217905550610e6a806100606000396000f3fe60806040526004361061004a5760003560e01c80635d495aea1461004f5780638b5b9ccc146100665780638da5cb5b14610091578063e97dcb62146100bc578063f71d96cb146100c6575b600080fd5b34801561005b57600080fd5b50610064610103565b005b34801561007257600080fd5b5061007b6102dc565b604051610088919061089d565b60405180910390f35b34801561009d57600080fd5b506100a661036a565b6040516100b391906108e0565b60405180910390f35b6100c461038e565b005b3480156100d257600080fd5b506100ed60048036038101906100e89190610936565b610470565b6040516100fa9190610972565b60405180910390f35b60008054906101000a900473ffffffffffffffffffffffffffffffffffffffff1673ffffffffffffffffffffffffffffffffffffffff163373ffffffffffffffffffffffffffffffffffffffff1614610191576040517f08c379a000000000000000000000000000000000000000000000000000000000815260040161018890610a10565b60405180910390fd5b60006001805490506101a16104af565b6101ab9190610a5f565b905060004790506000600183815481106101c8576101c7610a90565b5b9060005260206000200160009054906101000a900473ffffffffffffffffffffffffffffffffffffffff1690508073ffffffffffffffffffffffffffffffffffffffff166108fc839081150290604051600060405180830381858888f1935050505015801561023b573d6000803e3d6000fd5b50600067ffffffffffffffff81111561025757610256610abf565b5b6040519080825280602002602001820160405280156102855781602001602082028036833780820191505090505b506001908051906020019061029b929190610706565b507f5edee9983c71e662e459fada2d6d9b4d9c61a0b4aab67068913d8ae44dac201e8383836040516102cf93929190610b5c565b60405180910390a1505050565b6060600180548060200260200160405190810160405280929190818152602001828054801561036057602002820191906000526020600020905b8160009054906101000a900473ffffffffffffffffffffffffffffffffffffffff1673ffffffffffffffffffffffffffffffffffffffff1681526020019060010190808311610316575b5050505050905090565b60008054906101000a900473ffffffffffffffffffffffffffffffffffffffff1681565b662386f26fc1000060006103a1826104e5565b6040516020016103b19190610c2a565b6040516020818303038152906040529050813410158190610408576040517f08c379a00000000000000000000000000000000000000000000000000000000081526004016103ff9190610c9a565b60405180910390fd5b506001339080600181540180825580915050600190039060005260206000200160009091909190916101000a81548173ffffffffffffffffffffffffffffffffffffffff021916908373ffffffffffffffffffffffffffffffffffffffff1602179055505050565b6001818154811061048057600080fd5b906000526020600020016000915054906101000a900473ffffffffffffffffffffffffffffffffffffffff1681565b6000444260016040516020016104c793929190610dfb565b6040516020818303038152906040528051906020012060001c905090565b6060600060016104f4846105b3565b01905060008167ffffffffffffffff81111561051357610512610abf565b5b6040519080825280601f01601f1916602001820160405280156105455781602001600182028036833780820191505090505b509050600082602001820190505b6001156105a8578080600190039150507f3031323334353637383961626364656600000000000000000000000000000000600a86061a8153600a858161059c5761059b610a30565b5b04945060008503610553575b819350505050919050565b600080600090507a184f03e93ff9f4daa797ed6e38ed64bf6a1f0100000000000000008310610611577a184f03e93ff9f4daa797ed6e38ed64bf6a1f010000000000000000838161060757610606610a30565b5b0492506040810190505b6d04ee2d6d415b85acef8100000000831061064e576d04ee2d6d415b85acef8100000000838161064457610643610a30565b5b0492506020810190505b662386f26fc10000831061067d57662386f26fc10000838161067357610672610a30565b5b0492506010810190505b6305f5e10083106106a6576305f5e100838161069c5761069b610a30565b5b0492506008810190505b61271083106106cb5761271083816106c1576106c0610a30565b5b0492506004810190505b606483106106ee57606483816106e4576106e3610a30565b5b0492506002810190505b600a83106106fd576001810190505b80915050919050565b82805482825590600052602060002090810192821561077f579160200282015b8281111561077e5782518260006101000a81548173ffffffffffffffffffffffffffffffffffffffff021916908373ffffffffffffffffffffffffffffffffffffffff16021790555091602001919060010190610726565b5b50905061078c9190610790565b5090565b5b808211156107a9576000816000905550600101610791565b5090565b600081519050919050565b600082825260208201905092915050565b6000819050602082019050919050565b600073ffffffffffffffffffffffffffffffffffffffff82169050919050565b6000610804826107d9565b9050919050565b610814816107f9565b82525050565b6000610826838361080b565b60208301905092915050565b6000602082019050919050565b600061084a826107ad565b61085481856107b8565b935061085f836107c9565b8060005b83811015610890578151610877888261081a565b975061088283610832565b925050600181019050610863565b5085935050505092915050565b600060208201905081810360008301526108b7818461083f565b905092915050565b60006108ca826107d9565b9050919050565b6108da816108bf565b82525050565b60006020820190506108f560008301846108d1565b92915050565b600080fd5b6000819050919050565b61091381610900565b811461091e57600080fd5b50565b6000813590506109308161090a565b92915050565b60006020828403121561094c5761094b6108fb565b5b600061095a84828501610921565b91505092915050565b61096c816107f9565b82525050565b60006020820190506109876000830184610963565b92915050565b600082825260208201905092915050565b7f4f6e6c7920746865206f776e6572206f66207468697320636f6e74726163742060008201527f63616e2063616c6c207468652066756e6374696f6e0000000000000000000000602082015250565b60006109fa60358361098d565b9150610a058261099e565b604082019050919050565b60006020820190508181036000830152610a29816109ed565b9050919050565b7f4e487b7100000000000000000000000000000000000000000000000000000000600052601260045260246000fd5b6000610a6a82610900565b9150610a7583610900565b925082610a8557610a84610a30565b5b828206905092915050565b7f4e487b7100000000000000000000000000000000000000000000000000000000600052603260045260246000fd5b7f4e487b7100000000000000000000000000000000000000000000000000000000600052604160045260246000fd5b610af781610900565b82525050565b6000819050919050565b6000610b22610b1d610b18846107d9565b610afd565b6107d9565b9050919050565b6000610b3482610b07565b9050919050565b6000610b4682610b29565b9050919050565b610b5681610b3b565b82525050565b6000606082019050610b716000830186610aee565b610b7e6020830185610aee565b610b8b6040830184610b4d565b949350505050565b7f546865206d696e696d756d2076616c7565207265717569726564206973200000815250565b600081519050919050565b600081905092915050565b60005b83811015610bed578082015181840152602081019050610bd2565b60008484015250505050565b6000610c0482610bb9565b610c0e8185610bc4565b9350610c1e818560208601610bcf565b80840191505092915050565b6000610c3582610b93565b601e82019150610c458284610bf9565b915081905092915050565b6000601f19601f8301169050919050565b6000610c6c82610bb9565b610c76818561098d565b9350610c86818560208601610bcf565b610c8f81610c50565b840191505092915050565b60006020820190508181036000830152610cb48184610c61565b905092915050565b6000819050919050565b610cd7610cd282610900565b610cbc565b82525050565b600081549050919050565b600081905092915050565b60008190508160005260206000209050919050565b610d11816107f9565b82525050565b6000610d238383610d08565b60208301905092915050565b60008160001c9050919050565b600073ffffffffffffffffffffffffffffffffffffffff82169050919050565b6000610d6f610d6a83610d2f565b610d3c565b9050919050565b6000610d828254610d5c565b9050919050565b6000600182019050919050565b6000610da182610cdd565b610dab8185610ce8565b9350610db683610cf3565b8060005b83811015610dee57610dcb82610d76565b610dd58882610d17565b9750610de083610d89565b925050600181019050610dba565b5085935050505092915050565b6000610e078286610cc6565b602082019150610e178285610cc6565b602082019150610e278284610d96565b915081905094935050505056fea2646970667358221220d6e0b92c30d37e0e5b4a589779528aa84ea4722cf1489bf31dcee21d82334f7564736f6c63430008140033",
  "linkReferences": {},
  "deployedLinkReferences": {}
}